:020000040000FA
:040000000000DC28F8
:080008008B1807281F2834089B
:100010003B3C031D16283208003C03191228FF3010
:10002000BF21B90AB30106108B101F28FF30BF2172
:100030005D21122106108B107E21B3011F28B30A07
:1000400034083B3C031D2A283308303C0319302870
:100050000B11DB283308203C031930280B11DB2857
:100060000B193328DB28B30134082A3C031D472829
:100070003008B5003B30B4000030B9000030B200A9
:100080008030CC009630CD009830CE00AB283408BC
:100090003B3C031D96283208003C031D5528C03008
:1000A000B100E4212C22B20ADB283908013C031DEF
:1000B0008C28C030B100E421852106108B100C3053
:1000C00081000B111030CC002730CD000030CE0065
:1000D0005408C9005508CA00CB01CC24B10A2B3002
:1000E000B0007E211030CC002730CD000030CE0093
:1000F0005608C9005708CA00CB01CC24C530B1004E
:1001000074123108D12174162A30B4002B30B0009B
:100110002B30B500B301DB28F720E4218521061040
:100120008B100C3081000B11B301DB287E216A2279
:100130003408303C031D9F283008B800C628340816
:10014000363C031DA6283008B800C62834083A3CBF
:10015000031DC028B40A7C23E421C030B1000C2266
:1001600035082B3C0319BE285608003C031DBE2849
:100170005708003C031DBE285322DB28D823DB2868
:100180003408353C031DC6283008B500B40A0610F3
:100190008B10B10A74123108D12174163408353C21
:1001A000031DD4282B30D5283030B0007E210C30F0
:1001B00081000B11B301090000001C2583120313F9
:1001C000061483160313850106309F000030850056
:1001D0008316031347308100831203138101D93042
:1001E0008100B0308B00E421F7208521F6283030E3
:1001F000B0000030B3000030B900C030B1000030B2
:10020000B2003030B40040302B2543302B2546302F
:100210002B2549302B258030CC009630CD009830EE
:10022000CE0008003408303C03193B293408313C27
:10023000031940293408323C031940293408333C5F
:1002400003194D293408343C031940293408363C3D
:1002500003193B293408373C031940293408383C3A
:10026000031940293408393C03194D2934083A3C14
:10027000031940295C293008373C031D5C295A29A1
:100280003808363C031D48293008363C03194A29F2
:1002900030083A3C031D5C295A293808363C031DB6
:1002A00055293008343C0319572930083A3C031DBE
:1002B0005C295A293030B00008003408353C031D51
:1002C0006229692934082A3C031D67296929B00A73
:1002D0007D2930082B3C031D70292F30B0007D296B
:1002E00030082F3C031D77292530B0007D293008C8
:1002F000253C031D7D292B30B00008003008D1219A
:1003000074123108D1217416080074128030D12182
:1003100074164530D1216E30D1217430D121653031
:10032000D1217230D1212030D1214F30D1217030F4
:10033000D1216530D1217230D1216130D121743089
:10034000D1216930D1216F30D1216E30D121741289
:100350003108D1217416FF30BF21FF30BF21B30116
:100360000C3081003030D12174123108D121741643
:100370000800F930F0000000F00BBB290800F10084
:10038000B921F10BC02908008516B921B921B9217D
:10039000B921B9218512B921B921B921B921B921D0
:1003A0000800F500F039F200F20E72088500741AA8
:1003B0000516C421B92175080F3985018500741A05
:1003C0000516C421B92108006430BF210F30F400A4
:1003D0008312031385018316031306309F008312D3
:1003E000031303308500C4210530BF21C421B92186
:1003F000C4210510C4212830D1210830D121013079
:10040000D1210630D1218030D1210C30D1210E30C4
:10041000D1210F30D121080074128030D1217416FF
:100420007230D1216530D1217330D1217530D12185
:100430006C30D1217430D12174123108D12174165D
:100440003D30D12174123108D1217416B10A7412D1
:100450003108D1217416080074128030D12174162D
:100460004B30D1216530D1216530D1217030D1217F
:100470002030D1215B30D1213130D1213A30D1210E
:100480005930D1212C30D1212030D1213230D1210D
:100490003A30D1214E30D1215D30D1217412310852
:1004A000D121741608006D30D1216130D121743012
:1004B000D1216830D1212030D1216530D121723055
:1004C000D1217230D1216F30D1217230D121213030
:1004D000D121080040302B2543302B2546302B25D9
:1004E0003408303C031D8A2A49302B251030C000C7
:1004F0002730C1003008303CC300C309C30AC325FC
:100500004908C00081254608C9004708CA004808B4
:10051000CB007B2B3408313C031DA62AE830C000F9
:100520000330C1003008303CC300C309C30AC325EF
:100530004908C0004A08C1004B08C200812546088E
:10054000C9004708CA004808CB007B2B3408323C5E
:10055000031DC02A6430C0003008303CC300C3090A
:10056000C30AC3254908C0004A08C1004B08C2009D
:1005700081254608C9004708CA004808CB007B2BE4
:100580003408333C031DDA2A0A30C0003008303CFE
:10059000C300C309C30AC3254908C0004A08C100F3
:1005A0004B08C20081254608C9004708CA00480810
:1005B000CB007B2B3408343C031DF42A0130C000EF
:1005C0003008303CC300C309C30AC3254908C00032
:1005D0004A08C1004B08C20081254608D4004708DC
:1005E000D5004808D6007B2B3408363C031D122B5F
:1005F00049302B251030C0002730C1003008303C76
:10060000C300C309C30AC3254908C0004A08C10082
:100610004B08C20081254608C9004708CA0048089F
:10062000CB007B2B3408373C031D2E2BE830C00059
:100630000330C1003008303CC300C309C30AC325DE
:100640004908C0004A08C1004B08C200812546087D
:10065000C9004708CA004808CB007B2B3408383C47
:10066000031D482B6430C0003008303CC300C30970
:10067000C30AC3254908C0004A08C1004B08C2008C
:1006800081254608C9004708CA004808CB007B2BD3
:100690003408393C031D622B0A30C0003008303C5E
:1006A000C300C309C30AC3254908C0004A08C100E2
:1006B0004B08C20081254608C9004708CA004808FF
:1006C000CB007B2B34083A3C031D7B2B0130C00050
:1006D0003008303CC300C309C30AC3254908C00021
:1006E0004A08C1004B08C20081254608D6004708C9
:1006F000D7004808D800080040302B2543302B2570
:1007000046302B2535082B3C031D962B5408C00082
:100710005508C1005608C6005708C700812546087D
:10072000D8004708D9004808DA00D72B35082F3CF5
:10073000031DB02B5408C6005508C7005608C0005A
:100740005708C100D3254308D8004408D9004508FC
:10075000DA004608DB004708DC004808DD00D72B3C
:100760003508253C031DD72B5408C6005508C70083
:100770005608C0005708C100D32540302B25560825
:10078000C0005708C100C3254608C0004708C10083
:100790004808C20046302B255408C6005508C7003B
:1007A0009E254608D8004708D9004808DA00080006
:1007B0000830B6000030B7005808C9005908CA0010
:1007C0005A08CB003608003C03193A2C40302B2540
:1007D00043302B2546302B254908C6004A08C70060
:1007E0004B08C8004C08C0004D08C1004E08C200AC
:1007F000D3254308003C031D012C3708003C031996
:10080000272C3708013EB7074308303EB0007E2151
:10081000B10A74123108D12174164C08C0004D0879
:10082000C1004E08C200C3254608C0004708C100E9
:100830004808C2004908C6004A08C7004B08C8005B
:100840009E254608C9004708CA004808CB004C0846
:10085000C6004D08C7004E08C80040302B250A309E
:10086000C000D3254308CC004408CD004508CE0085
:10087000B603E22B3708003C031D472C3708303EF7
:10088000B0007E21B10A74123108D12174163508E6
:100890002F3C031DCB2C2C30D12174123108D121D7
:1008A0007416B10A74123108D12174160830B600DA
:1008B0000030B7005B08C9005C08CA005D08CB00C7
:1008C0008030CC009630CD009830CE003608003C09
:1008D0000319BE2C40302B2543302B2546302B25C9
:1008E0004908C6004A08C7004B08C8004C08C000A9
:1008F0004D08C1004E08C200D3254308003C031D2B
:10090000852C3708003C0319AB2C3708013EB7078C
:100910004308303EB0007E21B10A74123108D12163
:1009200074164C08C0004D08C1004E08C200C32513
:100930004608C0004708C1004808C2004908C60070
:100940004A08C7004B08C8009E254608C90047084A
:10095000CA004808CB004C08C6004D08C7004E0826
:10096000C80040302B250A30C000D3254308CC00F6
:100970004408CD004508CE00B603662C3708003C7D
:10098000031DCB2C3708303EB0007E21B10A741213
:100990003108D121741608000530B6003608003C35
:1009A00003191B2D40302B2543302B2546302B259A
:1009B0004908C6004A08C7004B08C8004C08C000D8
:1009C0004D08C1004E08C200D3254308303EB00098
:1009D0007E21B10A74123108D12174164C08C0006E
:1009E0004D08C1004E08C200C3254608C000470894
:1009F000C1004808C2004908C6004A08C7004B08A1
:100A0000C8009E254608C9004708CA004808CB0010
:100A10004C08C6004D08C7004E08C80040302B25C2
:100A20000A30C000D3254308CC004408CD00450857
:100A3000CE00B603CE2C0800FF30BF21FF30BF210F
:100A4000FF30BF21FF30BF21FF30BF21FF30BF216A
:100A5000FF30BF21080084000330CF008001840AEA
:100A6000CF03031D2E2D080084000330CF00800A21
:100A7000031D0800840ACF03031D372D08008400DE
:100A80000330CF008003FF300002031D0800840AFA
:100A9000CF03031D422D080084000308D000CF01BE
:100AA00050088300800D0308D000840ACF0A033069
:100AB0004F02031D502D08008400023084070308F4
:100AC000D000CF0150088300800C0308D0008403BD
:100AD000CF0A03304F02031D622D0800CF014F08DB
:100AE000483C84000008D1004F08423C84000008C4
:100AF000D102031D0800CF0A03304F02031D6F2DE2
:100B000008000310D001CF01D1015018D10AD00143
:100B100040304F0784000008D107031850144630B6
:100B20004F0784000008D1070318501451088000B3
:100B3000CF0A03304F02031D842D0800CF0150144B
:100B4000521446304F0784000008D10040304F0750
:100B500084000008D102031C52105018B32D01303C
:100B6000D102031C521046304F0784005108800008
:100B70005014521C5010CF0A03304F02031DA02DF9
:100B8000501C0310080046302B251930D300D30326
:100B90000319080043188125031043305C25031016
:100BA00040304C25C72D43302B251830D300C21BB5
:100BB000E12D403003104C25D303031DD72D031521
:100BC00008006E250308D20043304C2552088300EC
:100BD00003189E250311031040305C25D30A1930F9
:080BE0005302031DE12D080082
:02400E00313748
:00000001FF
